{
  "_format": "hh-sol-artifact-1",
  "contractName": "MockTimeSwapRouter",
  "sourceName": "contracts/test/MockTimeSwapRouter.sol",
  "abi": [
    {
      "inputs": [
        {
          "internalType": "address",
          "name": "_factory",
          "type": "address"
        },
        {
          "internalType": "address",
          "name": "_WIP9",
          "type": "address"
        }
      ],
      "stateMutability": "nonpayable",
      "type": "constructor"
    },
    {
      "inputs": [],
      "name": "WIP9",
      "outputs": [
        {
          "internalType": "address",
          "name": "",
          "type": "address"
        }
      ],
      "stateMutability": "view",
      "type": "function"
    },
    {
      "inputs": [
        {
          "components": [
            {
              "internalType": "bytes",
              "name": "path",
              "type": "bytes"
            },
            {
              "internalType": "address",
              "name": "recipient",
              "type": "address"
            },
            {
              "internalType": "uint256",
              "name": "deadline",
              "type": "uint256"
            },
            {
              "internalType": "uint256",
              "name": "amountIn",
              "type": "uint256"
            },
            {
              "internalType": "uint256",
              "name": "amountOutMinimum",
              "type": "uint256"
            }
          ],
          "internalType": "struct ISwapRouter.ExactInputParams",
          "name": "params",
          "type": "tuple"
        }
      ],
      "name": "exactInput",
      "outputs": [
        {
          "internalType": "uint256",
          "name": "amountOut",
          "type": "uint256"
        }
      ],
      "stateMutability": "payable",
      "type": "function"
    },
    {
      "inputs": [
        {
          "components": [
            {
              "internalType": "address",
              "name": "tokenIn",
              "type": "address"
            },
            {
              "internalType": "address",
              "name": "tokenOut",
              "type": "address"
            },
            {
              "internalType": "uint24",
              "name": "fee",
              "type": "uint24"
            },
            {
              "internalType": "address",
              "name": "recipient",
              "type": "address"
            },
            {
              "internalType": "uint256",
              "name": "deadline",
              "type": "uint256"
            },
            {
              "internalType": "uint256",
              "name": "amountIn",
              "type": "uint256"
            },
            {
              "internalType": "uint256",
              "name": "amountOutMinimum",
              "type": "uint256"
            },
            {
              "internalType": "uint160",
              "name": "sqrtPriceLimitX96",
              "type": "uint160"
            }
          ],
          "internalType": "struct ISwapRouter.ExactInputSingleParams",
          "name": "params",
          "type": "tuple"
        }
      ],
      "name": "exactInputSingle",
      "outputs": [
        {
          "internalType": "uint256",
          "name": "amountOut",
          "type": "uint256"
        }
      ],
      "stateMutability": "payable",
      "type": "function"
    },
    {
      "inputs": [
        {
          "components": [
            {
              "internalType": "bytes",
              "name": "path",
              "type": "bytes"
            },
            {
              "internalType": "address",
              "name": "recipient",
              "type": "address"
            },
            {
              "internalType": "uint256",
              "name": "deadline",
              "type": "uint256"
            },
            {
              "internalType": "uint256",
              "name": "amountOut",
              "type": "uint256"
            },
            {
              "internalType": "uint256",
              "name": "amountInMaximum",
              "type": "uint256"
            }
          ],
          "internalType": "struct ISwapRouter.ExactOutputParams",
          "name": "params",
          "type": "tuple"
        }
      ],
      "name": "exactOutput",
      "outputs": [
        {
          "internalType": "uint256",
          "name": "amountIn",
          "type": "uint256"
        }
      ],
      "stateMutability": "payable",
      "type": "function"
    },
    {
      "inputs": [
        {
          "components": [
            {
              "internalType": "address",
              "name": "tokenIn",
              "type": "address"
            },
            {
              "internalType": "address",
              "name": "tokenOut",
              "type": "address"
            },
            {
              "internalType": "uint24",
              "name": "fee",
              "type": "uint24"
            },
            {
              "internalType": "address",
              "name": "recipient",
              "type": "address"
            },
            {
              "internalType": "uint256",
              "name": "deadline",
              "type": "uint256"
            },
            {
              "internalType": "uint256",
              "name": "amountOut",
              "type": "uint256"
            },
            {
              "internalType": "uint256",
              "name": "amountInMaximum",
              "type": "uint256"
            },
            {
              "internalType": "uint160",
              "name": "sqrtPriceLimitX96",
              "type": "uint160"
            }
          ],
          "internalType": "struct ISwapRouter.ExactOutputSingleParams",
          "name": "params",
          "type": "tuple"
        }
      ],
      "name": "exactOutputSingle",
      "outputs": [
        {
          "internalType": "uint256",
          "name": "amountIn",
          "type": "uint256"
        }
      ],
      "stateMutability": "payable",
      "type": "function"
    },
    {
      "inputs": [],
      "name": "factory",
      "outputs": [
        {
          "internalType": "address",
          "name": "",
          "type": "address"
        }
      ],
      "stateMutability": "view",
      "type": "function"
    },
    {
      "inputs": [
        {
          "internalType": "bytes[]",
          "name": "data",
          "type": "bytes[]"
        }
      ],
      "name": "multicall",
      "outputs": [
        {
          "internalType": "bytes[]",
          "name": "results",
          "type": "bytes[]"
        }
      ],
      "stateMutability": "payable",
      "type": "function"
    },
    {
      "inputs": [],
      "name": "refundIP",
      "outputs": [],
      "stateMutability": "payable",
      "type": "function"
    },
    {
      "inputs": [
        {
          "internalType": "address",
          "name": "token",
          "type": "address"
        },
        {
          "internalType": "uint256",
          "name": "value",
          "type": "uint256"
        },
        {
          "internalType": "uint256",
          "name": "deadline",
          "type": "uint256"
        },
        {
          "internalType": "uint8",
          "name": "v",
          "type": "uint8"
        },
        {
          "internalType": "bytes32",
          "name": "r",
          "type": "bytes32"
        },
        {
          "internalType": "bytes32",
          "name": "s",
          "type": "bytes32"
        }
      ],
      "name": "selfPermit",
      "outputs": [],
      "stateMutability": "payable",
      "type": "function"
    },
    {
      "inputs": [
        {
          "internalType": "address",
          "name": "token",
          "type": "address"
        },
        {
          "internalType": "uint256",
          "name": "nonce",
          "type": "uint256"
        },
        {
          "internalType": "uint256",
          "name": "expiry",
          "type": "uint256"
        },
        {
          "internalType": "uint8",
          "name": "v",
          "type": "uint8"
        },
        {
          "internalType": "bytes32",
          "name": "r",
          "type": "bytes32"
        },
        {
          "internalType": "bytes32",
          "name": "s",
          "type": "bytes32"
        }
      ],
      "name": "selfPermitAllowed",
      "outputs": [],
      "stateMutability": "payable",
      "type": "function"
    },
    {
      "inputs": [
        {
          "internalType": "address",
          "name": "token",
          "type": "address"
        },
        {
          "internalType": "uint256",
          "name": "nonce",
          "type": "uint256"
        },
        {
          "internalType": "uint256",
          "name": "expiry",
          "type": "uint256"
        },
        {
          "internalType": "uint8",
          "name": "v",
          "type": "uint8"
        },
        {
          "internalType": "bytes32",
          "name": "r",
          "type": "bytes32"
        },
        {
          "internalType": "bytes32",
          "name": "s",
          "type": "bytes32"
        }
      ],
      "name": "selfPermitAllowedIfNecessary",
      "outputs": [],
      "stateMutability": "payable",
      "type": "function"
    },
    {
      "inputs": [
        {
          "internalType": "address",
          "name": "token",
          "type": "address"
        },
        {
          "internalType": "uint256",
          "name": "value",
          "type": "uint256"
        },
        {
          "internalType": "uint256",
          "name": "deadline",
          "type": "uint256"
        },
        {
          "internalType": "uint8",
          "name": "v",
          "type": "uint8"
        },
        {
          "internalType": "bytes32",
          "name": "r",
          "type": "bytes32"
        },
        {
          "internalType": "bytes32",
          "name": "s",
          "type": "bytes32"
        }
      ],
      "name": "selfPermitIfNecessary",
      "outputs": [],
      "stateMutability": "payable",
      "type": "function"
    },
    {
      "inputs": [
        {
          "internalType": "uint256",
          "name": "_time",
          "type": "uint256"
        }
      ],
      "name": "setTime",
      "outputs": [],
      "stateMutability": "nonpayable",
      "type": "function"
    },
    {
      "inputs": [
        {
          "internalType": "int256",
          "name": "amount0Delta",
          "type": "int256"
        },
        {
          "internalType": "int256",
          "name": "amount1Delta",
          "type": "int256"
        },
        {
          "internalType": "bytes",
          "name": "_data",
          "type": "bytes"
        }
      ],
      "name": "storyHuntV3SwapCallback",
      "outputs": [],
      "stateMutability": "nonpayable",
      "type": "function"
    },
    {
      "inputs": [
        {
          "internalType": "address",
          "name": "token",
          "type": "address"
        },
        {
          "internalType": "uint256",
          "name": "amountMinimum",
          "type": "uint256"
        },
        {
          "internalType": "address",
          "name": "recipient",
          "type": "address"
        }
      ],
      "name": "sweepToken",
      "outputs": [],
      "stateMutability": "payable",
      "type": "function"
    },
    {
      "inputs": [
        {
          "internalType": "address",
          "name": "token",
          "type": "address"
        },
        {
          "internalType": "uint256",
          "name": "amountMinimum",
          "type": "uint256"
        },
        {
          "internalType": "address",
          "name": "recipient",
          "type": "address"
        },
        {
          "internalType": "uint256",
          "name": "feeBips",
          "type": "uint256"
        },
        {
          "internalType": "address",
          "name": "feeRecipient",
          "type": "address"
        }
      ],
      "name": "sweepTokenWithFee",
      "outputs": [],
      "stateMutability": "payable",
      "type": "function"
    },
    {
      "inputs": [
        {
          "internalType": "uint256",
          "name": "amountMinimum",
          "type": "uint256"
        },
        {
          "internalType": "address",
          "name": "recipient",
          "type": "address"
        }
      ],
      "name": "unwrapWIP9",
      "outputs": [],
      "stateMutability": "payable",
      "type": "function"
    },
    {
      "inputs": [
        {
          "internalType": "uint256",
          "name": "amountMinimum",
          "type": "uint256"
        },
        {
          "internalType": "address",
          "name": "recipient",
          "type": "address"
        },
        {
          "internalType": "uint256",
          "name": "feeBips",
          "type": "uint256"
        },
        {
          "internalType": "address",
          "name": "feeRecipient",
          "type": "address"
        }
      ],
      "name": "unwrapWIP9WithFee",
      "outputs": [],
      "stateMutability": "payable",
      "type": "function"
    },
    {
      "stateMutability": "payable",
      "type": "receive"
    }
  ],
  "bytecode": "0x60c06040526000196000553480156200001757600080fd5b506040516200308f3803806200308f8339810160408190526200003a9162000076565b6001600160601b0319606092831b8116608052911b1660a052620000ad565b80516001600160a01b03811681146200007157600080fd5b919050565b6000806040838503121562000089578182fd5b620000948362000059565b9150620000a46020840162000059565b90509250929050565b60805160601c60a05160601c612f86620001096000398061014a528061093f5280610bb75280610ce152806111c652806112f0528061188052806118e052806119615250806106045280610b775280611e6e5250612f866000f3fe60806040526004361061012d5760003560e01c8063c2e3140a116100a5578063df2ab5bb11610074578063eff7a11311610059578063eff7a1131461033d578063f28c049814610350578063f3995c6714610363576101d8565b8063df2ab5bb14610317578063e0e189a01461032a576101d8565b8063c2e3140a146102c9578063c45a0155146102dc578063c654ba70146102f1578063db3e219814610304576101d8565b80637454f502116100fc578063ac9650d8116100e1578063ac9650d814610274578063addc969914610294578063c04b8d59146102b6576101d8565b80637454f50214610241578063a4a78f0c14610261576101d8565b80631f970982146101dd5780633beb26c4146101e5578063414bf389146102055780634659a4941461022e576101d8565b366101d8573373ffffffffffffffffffffffffffffffffffffffff7f000000000000000000000000000000000000000000000000000000000000000016146101d657604080517f08c379a000000000000000000000000000000000000000000000000000000000815260206004820152600860248201527f4e6f742057495039000000000000000000000000000000000000000000000000604482015290519081900360640190fd5b005b600080fd5b6101d6610376565b3480156101f157600080fd5b506101d6610200366004612b47565b610388565b610218610213366004612a40565b61038d565b6040516102259190612e51565b60405180910390f35b6101d661023c3660046127be565b6104ff565b34801561024d57600080fd5b506101d661025c3660046128b0565b6105bf565b6101d661026f3660046127be565b610706565b61028761028236600461281e565b6107e3565b6040516102259190612d0a565b3480156102a057600080fd5b506102a961093d565b6040516102259190612c97565b6102186102c4366004612995565b610961565b6101d66102d73660046127be565b610ac0565b3480156102e857600080fd5b506102a9610b75565b6101d66102ff366004612b8e565b610b99565b610218610312366004612a40565b610daf565b6101d661032536600461271f565b610f3f565b6101d6610338366004612760565b61105c565b6101d661034b366004612b5f565b6111c2565b61021861035e366004612a5c565b611388565b6101d66103713660046127be565b6114bc565b4715610386576103863347611554565b565b600155565b600081608001358061039d6116a2565b111561040a57604080517f08c379a000000000000000000000000000000000000000000000000000000000815260206004820152601360248201527f5472616e73616374696f6e20746f6f206f6c6400000000000000000000000000604482015290519081900360640190fd5b6104b060a084013561042260808601606087016126fc565b610433610100870160e088016126fc565b604080518082019091528061044b60208a018a6126fc565b61045b60608b0160408c01612b24565b61046b60408c0160208d016126fc565b60405160200161047d93929190612c21565b60405160208183030381529060405281526020013373ffffffffffffffffffffffffffffffffffffffff168152506116a8565b91508260c001358210156104f9576040517f08c379a00000000000000000000000000000000000000000000000000000000081526004016104f090612dd2565b60405180910390fd5b50919050565b604080517f8fcbaf0c00000000000000000000000000000000000000000000000000000000815233600482015230602482015260448101879052606481018690526001608482015260ff851660a482015260c4810184905260e48101839052905173ffffffffffffffffffffffffffffffffffffffff881691638fcbaf0c9161010480830192600092919082900301818387803b15801561059f57600080fd5b505af11580156105b3573d6000803e3d6000fd5b50505050505050505050565b60008413806105ce5750600083135b6105d757600080fd5b60006105e582840184612a94565b905060008060006105f9846000015161182e565b92509250925061062b7f000000000000000000000000000000000000000000000000000000000000000084848461185f565b5060008060008a1361066c578473ffffffffffffffffffffffffffffffffffffffff168473ffffffffffffffffffffffffffffffffffffffff16108961069d565b8373ffffffffffffffffffffffffffffffffffffffff168573ffffffffffffffffffffffffffffffffffffffff16108a5b9150915081156106bc576106b7858760200151338461187e565b6105b3565b85516106c790611a5c565b156106ec5785516106d790611a68565b86526106e68133600089611aa3565b506105b3565b806000819055508394506105b3858760200151338461187e565b604080517fdd62ed3e00000000000000000000000000000000000000000000000000000000815233600482015230602482015290517fffffffffffffffffffffffffffffffffffffffffffffffffffffffffffffffff9173ffffffffffffffffffffffffffffffffffffffff89169163dd62ed3e91604480820192602092909190829003018186803b15801561079b57600080fd5b505afa1580156107af573d6000803e3d6000fd5b505050506040513d60208110156107c557600080fd5b505110156107db576107db8686868686866104ff565b505050505050565b60608167ffffffffffffffff811180156107fc57600080fd5b5060405190808252806020026020018201604052801561083057816020015b606081526020019060019003908161081b5790505b50905060005b82811015610936576000803086868581811061084e57fe5b90506020028101906108609190612e5a565b60405161086e929190612c87565b600060405180830381855af49150503d80600081146108a9576040519150601f19603f3d011682016040523d82523d6000602084013e6108ae565b606091505b509150915081610914576044815110156108c757600080fd5b600481019050808060200190518101906108e1919061292b565b6040517f08c379a00000000000000000000000000000000000000000000000000000000081526004016104f09190612d88565b8084848151811061092157fe5b60209081029190910101525050600101610836565b5092915050565b7f000000000000000000000000000000000000000000000000000000000000000081565b60008160400151806109716116a2565b11156109de57604080517f08c379a000000000000000000000000000000000000000000000000000000000815260206004820152601360248201527f5472616e73616374696f6e20746f6f206f6c6400000000000000000000000000604482015290519081900360640190fd5b335b60006109ef8560000151611a5c565b9050610a48856060015182610a08578660200151610a0a565b305b60006040518060400160405280610a248b60000151611c5f565b81526020018773ffffffffffffffffffffffffffffffffffffffff168152506116a8565b60608601528015610a68578451309250610a6190611a68565b8552610a75565b8460600151935050610a7b565b506109e0565b8360800151831015610ab9576040517f08c379a00000000000000000000000000000000000000000000000000000000081526004016104f090612dd2565b5050919050565b604080517fdd62ed3e0000000000000000000000000000000000000000000000000000000081523360048201523060248201529051869173ffffffffffffffffffffffffffffffffffffffff89169163dd62ed3e91604480820192602092909190829003018186803b158015610b3557600080fd5b505afa158015610b49573d6000803e3d6000fd5b505050506040513d6020811015610b5f57600080fd5b505110156107db576107db8686868686866114bc565b7f000000000000000000000000000000000000000000000000000000000000000081565b600082118015610baa575060648211155b610bb357600080fd5b60007f000000000000000000000000000000000000000000000000000000000000000073ffffffffffffffffffffffffffffffffffffffff166370a08231306040518263ffffffff1660e01b8152600401808273ffffffffffffffffffffffffffffffffffffffff16815260200191505060206040518083038186803b158015610c3c57600080fd5b505afa158015610c50573d6000803e3d6000fd5b505050506040513d6020811015610c6657600080fd5b5051905084811015610cd957604080517f08c379a000000000000000000000000000000000000000000000000000000000815260206004820152601160248201527f496e73756666696369656e742057495039000000000000000000000000000000604482015290519081900360640190fd5b8015610da8577f000000000000000000000000000000000000000000000000000000000000000073ffffffffffffffffffffffffffffffffffffffff16632e1a7d4d826040518263ffffffff1660e01b815260040180828152602001915050600060405180830381600087803b158015610d5257600080fd5b505af1158015610d66573d6000803e3d6000fd5b505050506000612710610d828584611c6e90919063ffffffff16565b81610d8957fe5b0490508015610d9c57610d9c8382611554565b6107db85828403611554565b5050505050565b6000816080013580610dbf6116a2565b1115610e2c57604080517f08c379a000000000000000000000000000000000000000000000000000000000815260206004820152601360248201527f5472616e73616374696f6e20746f6f206f6c6400000000000000000000000000604482015290519081900360640190fd5b610ed560a0840135610e4460808601606087016126fc565b610e55610100870160e088016126fc565b6040518060400160405280886020016020810190610e7391906126fc565b610e8360608b0160408c01612b24565b610e9060208c018c6126fc565b604051602001610ea293929190612c21565b60405160208183030381529060405281526020013373ffffffffffffffffffffffffffffffffffffffff16815250611aa3565b91508260c00135821115610f15576040517f08c379a00000000000000000000000000000000000000000000000000000000081526004016104f090612d9b565b507fffffffffffffffffffffffffffffffffffffffffffffffffffffffffffffffff600055919050565b60008373ffffffffffffffffffffffffffffffffffffffff166370a08231306040518263ffffffff1660e01b8152600401808273ffffffffffffffffffffffffffffffffffffffff16815260200191505060206040518083038186803b158015610fa857600080fd5b505afa158015610fbc573d6000803e3d6000fd5b505050506040513d6020811015610fd257600080fd5b505190508281101561104557604080517f08c379a000000000000000000000000000000000000000000000000000000000815260206004820152601260248201527f496e73756666696369656e7420746f6b656e0000000000000000000000000000604482015290519081900360640190fd5b801561105657611056848383611c92565b50505050565b60008211801561106d575060648211155b61107657600080fd5b60008573ffffffffffffffffffffffffffffffffffffffff166370a08231306040518263ffffffff1660e01b8152600401808273ffffffffffffffffffffffffffffffffffffffff16815260200191505060206040518083038186803b1580156110df57600080fd5b505afa1580156110f3573d6000803e3d6000fd5b505050506040513d602081101561110957600080fd5b505190508481101561117c57604080517f08c379a000000000000000000000000000000000000000000000000000000000815260206004820152601260248201527f496e73756666696369656e7420746f6b656e0000000000000000000000000000604482015290519081900360640190fd5b80156107db5760006127106111918386611c6e565b8161119857fe5b04905080156111ac576111ac878483611c92565b6111b98786838503611c92565b50505050505050565b60007f000000000000000000000000000000000000000000000000000000000000000073ffffffffffffffffffffffffffffffffffffffff166370a08231306040518263ffffffff1660e01b8152600401808273ffffffffffffffffffffffffffffffffffffffff16815260200191505060206040518083038186803b15801561124b57600080fd5b505afa15801561125f573d6000803e3d6000fd5b505050506040513d602081101561127557600080fd5b50519050828110156112e857604080517f08c379a000000000000000000000000000000000000000000000000000000000815260206004820152601160248201527f496e73756666696369656e742057495039000000000000000000000000000000604482015290519081900360640190fd5b8015611383577f000000000000000000000000000000000000000000000000000000000000000073ffffffffffffffffffffffffffffffffffffffff16632e1a7d4d826040518263ffffffff1660e01b815260040180828152602001915050600060405180830381600087803b15801561136157600080fd5b505af1158015611375573d6000803e3d6000fd5b505050506113838282611554565b505050565b60008160400135806113986116a2565b111561140557604080517f08c379a000000000000000000000000000000000000000000000000000000000815260206004820152601360248201527f5472616e73616374696f6e20746f6f206f6c6400000000000000000000000000604482015290519081900360640190fd5b611478606084013561141d60408601602087016126fc565b60408051808201909152600090806114358980612e5a565b8080601f01602080910402602001604051908101604052809392919081815260200183838082843760009201919091525050509082525033602090910152611aa3565b5060005491508260800135821115610f15576040517f08c379a00000000000000000000000000000000000000000000000000000000081526004016104f090612d9b565b604080517fd505accf000000000000000000000000000000000000000000000000000000008152336004820152306024820152604481018790526064810186905260ff8516608482015260a4810184905260c48101839052905173ffffffffffffffffffffffffffffffffffffffff88169163d505accf9160e480830192600092919082900301818387803b15801561059f57600080fd5b6040805160008082526020820190925273ffffffffffffffffffffffffffffffffffffffff84169083906040518082805190602001908083835b602083106115cb57805182527fffffffffffffffffffffffffffffffffffffffffffffffffffffffffffffffe0909201916020918201910161158e565b6001836020036101000a03801982511681845116808217855250505050505090500191505060006040518083038185875af1925050503d806000811461162d576040519150601f19603f3d011682016040523d82523d6000602084013e611632565b606091505b505090508061138357604080517f08c379a000000000000000000000000000000000000000000000000000000000815260206004820152600360248201527f5354450000000000000000000000000000000000000000000000000000000000604482015290519081900360640190fd5b60015490565b600073ffffffffffffffffffffffffffffffffffffffff84166116c9573093505b60008060006116db856000015161182e565b9194509250905073ffffffffffffffffffffffffffffffffffffffff8083169084161060008061170c868686611e67565b73ffffffffffffffffffffffffffffffffffffffff1663128acb088b856117328f611ea5565b73ffffffffffffffffffffffffffffffffffffffff8e1615611754578d61177a565b876117735773fffd8963efd1fc6a506488495d951d5263988d2561177a565b6401000276a45b8d60405160200161178b9190612e09565b6040516020818303038152906040526040518663ffffffff1660e01b81526004016117ba959493929190612cb8565b6040805180830381600087803b1580156117d357600080fd5b505af11580156117e7573d6000803e3d6000fd5b505050506040513d601f19601f8201168201806040525081019061180b919061288d565b915091508261181a578161181c565b805b6000039b9a5050505050505050505050565b6000808061183c8482611ed7565b9250611849846014611fd7565b9050611856846017611ed7565b91509193909250565b6000611875856118708686866120c7565b612144565b95945050505050565b7f000000000000000000000000000000000000000000000000000000000000000073ffffffffffffffffffffffffffffffffffffffff168473ffffffffffffffffffffffffffffffffffffffff161480156118d95750804710155b15611a22577f000000000000000000000000000000000000000000000000000000000000000073ffffffffffffffffffffffffffffffffffffffff1663d0e30db0826040518263ffffffff1660e01b81526004016000604051808303818588803b15801561194657600080fd5b505af115801561195a573d6000803e3d6000fd5b50505050507f000000000000000000000000000000000000000000000000000000000000000073ffffffffffffffffffffffffffffffffffffffff1663a9059cbb83836040518363ffffffff1660e01b8152600401808373ffffffffffffffffffffffffffffffffffffffff16815260200182815260200192505050602060405180830381600087803b1580156119f057600080fd5b505af1158015611a04573d6000803e3d6000fd5b505050506040513d6020811015611a1a57600080fd5b506110569050565b73ffffffffffffffffffffffffffffffffffffffff8316301415611a5057611a4b848383611c92565b611056565b61105684848484612174565b8051604211155b919050565b8051606090611a9d9083906017907fffffffffffffffffffffffffffffffffffffffffffffffffffffffffffffffe901612351565b92915050565b600073ffffffffffffffffffffffffffffffffffffffff8416611ac4573093505b6000806000611ad6856000015161182e565b9194509250905073ffffffffffffffffffffffffffffffffffffffff80841690831610600080611b07858786611e67565b73ffffffffffffffffffffffffffffffffffffffff1663128acb088b85611b2d8f611ea5565b60000373ffffffffffffffffffffffffffffffffffffffff8e1615611b52578d611b78565b87611b715773fffd8963efd1fc6a506488495d951d5263988d25611b78565b6401000276a45b8d604051602001611b899190612e09565b6040516020818303038152906040526040518663ffffffff1660e01b8152600401611bb8959493929190612cb8565b6040805180830381600087803b158015611bd157600080fd5b505af1158015611be5573d6000803e3d6000fd5b505050506040513d601f19601f82011682018060405250810190611c09919061288d565b91509150600083611c1e578183600003611c24565b82826000035b909850905073ffffffffffffffffffffffffffffffffffffffff8a16611c50578b8114611c5057600080fd5b50505050505050949350505050565b6060611a9d826000602b612351565b6000821580611c8957505081810281838281611c8657fe5b04145b611a9d57600080fd5b6040805173ffffffffffffffffffffffffffffffffffffffff8481166024830152604480830185905283518084039091018152606490920183526020820180517bffffffffffffffffffffffffffffffffffffffffffffffffffffffff167fa9059cbb000000000000000000000000000000000000000000000000000000001781529251825160009485949389169392918291908083835b60208310611d6757805182527fffffffffffffffffffffffffffffffffffffffffffffffffffffffffffffffe09092019160209182019101611d2a565b6001836020036101000a0380198251168184511680821785525050505050509050019150506000604051808303816000865af19150503d8060008114611dc9576040519150601f19603f3d011682016040523d82523d6000602084013e611dce565b606091505b5091509150818015611dfc575080511580611dfc5750808060200190516020811015611df957600080fd5b50515b610da857604080517f08c379a000000000000000000000000000000000000000000000000000000000815260206004820152600260248201527f5354000000000000000000000000000000000000000000000000000000000000604482015290519081900360640190fd5b6000611e9d7f0000000000000000000000000000000000000000000000000000000000000000611e988686866120c7565b612538565b949350505050565b60007f80000000000000000000000000000000000000000000000000000000000000008210611ed357600080fd5b5090565b600081826014011015611f4b57604080517f08c379a000000000000000000000000000000000000000000000000000000000815260206004820152601260248201527f746f416464726573735f6f766572666c6f770000000000000000000000000000604482015290519081900360640190fd5b8160140183511015611fbe57604080517f08c379a000000000000000000000000000000000000000000000000000000000815260206004820152601560248201527f746f416464726573735f6f75744f66426f756e64730000000000000000000000604482015290519081900360640190fd5b5001602001516c01000000000000000000000000900490565b60008182600301101561204b57604080517f08c379a000000000000000000000000000000000000000000000000000000000815260206004820152601160248201527f746f55696e7432345f6f766572666c6f77000000000000000000000000000000604482015290519081900360640190fd5b81600301835110156120be57604080517f08c379a000000000000000000000000000000000000000000000000000000000815260206004820152601460248201527f746f55696e7432345f6f75744f66426f756e6473000000000000000000000000604482015290519081900360640190fd5b50016003015190565b6120cf61266e565b8273ffffffffffffffffffffffffffffffffffffffff168473ffffffffffffffffffffffffffffffffffffffff161115612107579192915b506040805160608101825273ffffffffffffffffffffffffffffffffffffffff948516815292909316602083015262ffffff169181019190915290565b60006121508383612538565b90503373ffffffffffffffffffffffffffffffffffffffff821614611a9d57600080fd5b6040805173ffffffffffffffffffffffffffffffffffffffff85811660248301528481166044830152606480830185905283518084039091018152608490920183526020820180517bffffffffffffffffffffffffffffffffffffffffffffffffffffffff167f23b872dd00000000000000000000000000000000000000000000000000000000178152925182516000948594938a169392918291908083835b6020831061225157805182527fffffffffffffffffffffffffffffffffffffffffffffffffffffffffffffffe09092019160209182019101612214565b6001836020036101000a0380198251168184511680821785525050505050509050019150506000604051808303816000865af19150503d80600081146122b3576040519150601f19603f3d011682016040523d82523d6000602084013e6122b8565b606091505b50915091508180156122e65750805115806122e657508080602001905160208110156122e357600080fd5b50515b6107db57604080517f08c379a000000000000000000000000000000000000000000000000000000000815260206004820152600360248201527f5354460000000000000000000000000000000000000000000000000000000000604482015290519081900360640190fd5b60608182601f0110156123c557604080517f08c379a000000000000000000000000000000000000000000000000000000000815260206004820152600e60248201527f736c6963655f6f766572666c6f77000000000000000000000000000000000000604482015290519081900360640190fd5b82828401101561243657604080517f08c379a000000000000000000000000000000000000000000000000000000000815260206004820152600e60248201527f736c6963655f6f766572666c6f77000000000000000000000000000000000000604482015290519081900360640190fd5b818301845110156124a857604080517f08c379a000000000000000000000000000000000000000000000000000000000815260206004820152601160248201527f736c6963655f6f75744f66426f756e6473000000000000000000000000000000604482015290519081900360640190fd5b6060821580156124c7576040519150600082526020820160405261252f565b6040519150601f8416801560200281840101858101878315602002848b0101015b818310156125005780518352602092830192016124e8565b5050858452601f017fffffffffffffffffffffffffffffffffffffffffffffffffffffffffffffffe016604052505b50949350505050565b6000816020015173ffffffffffffffffffffffffffffffffffffffff16826000015173ffffffffffffffffffffffffffffffffffffffff161061257a57600080fd5b508051602080830151604093840151845173ffffffffffffffffffffffffffffffffffffffff94851681850152939091168385015262ffffff166060808401919091528351808403820181526080840185528051908301207fff0000000000000000000000000000000000000000000000000000000000000060a085015294901b7fffffffffffffffffffffffffffffffffffffffff0000000000000000000000001660a183015260b58201939093527f5cea2eb9879ca53b37c03e28e630340a0e2b1575e3df2ba4b38a11af3946ac9260d5808301919091528251808303909101815260f5909101909152805191012090565b604080516060810182526000808252602082018190529181019190915290565b8035611a6381612f54565b600082601f8301126126a9578081fd5b81356126bc6126b782612ee8565b612ec4565b8181528460208386010111156126d0578283fd5b816020850160208301379081016020019190915292915050565b600061010082840312156104f9578081fd5b60006020828403121561270d578081fd5b813561271881612f54565b9392505050565b600080600060608486031215612733578182fd5b833561273e81612f54565b925060208401359150604084013561275581612f54565b809150509250925092565b600080600080600060a08688031215612777578081fd5b853561278281612f54565b945060208601359350604086013561279981612f54565b92506060860135915060808601356127b081612f54565b809150509295509295909350565b60008060008060008060c087890312156127d6578081fd5b86356127e181612f54565b95506020870135945060408701359350606087013560ff81168114612804578182fd5b9598949750929560808101359460a0909101359350915050565b60008060208385031215612830578182fd5b823567ffffffffffffffff80821115612847578384fd5b818501915085601f83011261285a578384fd5b813581811115612868578485fd5b866020808302850101111561287b578485fd5b60209290920196919550909350505050565b6000806040838503121561289f578182fd5b505080516020909101519092909150565b600080600080606085870312156128c5578182fd5b8435935060208501359250604085013567ffffffffffffffff808211156128ea578384fd5b818701915087601f8301126128fd578384fd5b81358181111561290b578485fd5b88602082850101111561291c578485fd5b95989497505060200194505050565b60006020828403121561293c578081fd5b815167ffffffffffffffff811115612952578182fd5b8201601f81018413612962578182fd5b80516129706126b782612ee8565b818152856020838501011115612984578384fd5b611875826020830160208601612f28565b6000602082840312156129a6578081fd5b813567ffffffffffffffff808211156129bd578283fd5b9083019060a082860312156129d0578283fd5b60405160a0810181811083821117156129e557fe5b6040528235828111156129f6578485fd5b612a0287828601612699565b825250612a116020840161268e565b602082015260408301356040820152606083013560608201526080830135608082015280935050505092915050565b60006101008284031215612a52578081fd5b61271883836126ea565b600060208284031215612a6d578081fd5b813567ffffffffffffffff811115612a83578182fd5b820160a08185031215612718578182fd5b600060208284031215612aa5578081fd5b813567ffffffffffffffff80821115612abc578283fd5b9083019060408286031215612acf578283fd5b604051604081018181108382111715612ae457fe5b604052823582811115612af5578485fd5b612b0187828601612699565b82525060208301359250612b1483612f54565b6020810192909252509392505050565b600060208284031215612b35578081fd5b813562ffffff81168114612718578182fd5b600060208284031215612b58578081fd5b5035919050565b60008060408385031215612b71578182fd5b823591506020830135612b8381612f54565b809150509250929050565b60008060008060808587031215612ba3578182fd5b843593506020850135612bb581612f54565b9250604085013591506060850135612bcc81612f54565b939692955090935050565b60008151808452612bef816020860160208601612f28565b601f017fffffffffffffffffffffffffffffffffffffffffffffffffffffffffffffffe0169290920160200192915050565b606093841b7fffffffffffffffffffffffffffffffffffffffff000000000000000000000000908116825260e89390931b7fffffff0000000000000000000000000000000000000000000000000000000000166014820152921b166017820152602b0190565b6000828483379101908152919050565b73ffffffffffffffffffffffffffffffffffffffff91909116815260200190565b600073ffffffffffffffffffffffffffffffffffffffff8088168352861515602084015285604084015280851660608401525060a06080830152612cff60a0830184612bd7565b979650505050505050565b6000602080830181845280855180835260408601915060408482028701019250838701855b82811015612d7b577fffffffffffffffffffffffffffffffffffffffffffffffffffffffffffffffc0888603018452612d69858351612bd7565b94509285019290850190600101612d2f565b5092979650505050505050565b6000602082526127186020830184612bd7565b60208082526012908201527f546f6f206d756368207265717565737465640000000000000000000000000000604082015260600190565b60208082526013908201527f546f6f206c6974746c6520726563656976656400000000000000000000000000604082015260600190565b600060208252825160406020840152612e256060840182612bd7565b905073ffffffffffffffffffffffffffffffffffffffff60208501511660408401528091505092915050565b90815260200190565b60008083357fffffffffffffffffffffffffffffffffffffffffffffffffffffffffffffffe1843603018112612e8e578283fd5b83018035915067ffffffffffffffff821115612ea8578283fd5b602001915036819003821315612ebd57600080fd5b9250929050565b60405181810167ffffffffffffffff81118282101715612ee057fe5b604052919050565b600067ffffffffffffffff821115612efc57fe5b50601f017fffffffffffffffffffffffffffffffffffffffffffffffffffffffffffffffe01660200190565b60005b83811015612f43578181015183820152602001612f2b565b838111156110565750506000910152565b73ffffffffffffffffffffffffffffffffffffffff81168114612f7657600080fd5b5056fea164736f6c6343000706000a",
  "linkReferences": {},
  "deployedLinkReferences": {}
}